{
  "_format": "hh-sol-artifact-1",
  "contractName": "LendableToken",
  "sourceName": "contracts/LendableToken.sol",
  "abi": [
    {
      "inputs": [
        {
          "internalType": "string",
          "name": "baseUri",
          "type": "string"
        },
        {
          "internalType": "uint256",
          "name": "price",
          "type": "uint256"
        },
        {
          "internalType": "uint256",
          "name": "maxSupply",
          "type": "uint256"
        }
      ],
      "stateMutability": "nonpayable",
      "type": "constructor"
    },
    {
      "anonymous": false,
      "inputs": [
        {
          "indexed": true,
          "internalType": "address",
          "name": "owner",
          "type": "address"
        },
        {
          "indexed": true,
          "internalType": "address",
          "name": "approved",
          "type": "address"
        },
        {
          "indexed": true,
          "internalType": "uint256",
          "name": "tokenId",
          "type": "uint256"
        }
      ],
      "name": "Approval",
      "type": "event"
    },
    {
      "anonymous": false,
      "inputs": [
        {
          "indexed": true,
          "internalType": "address",
          "name": "owner",
          "type": "address"
        },
        {
          "indexed": true,
          "internalType": "address",
          "name": "operator",
          "type": "address"
        },
        {
          "indexed": false,
          "internalType": "bool",
          "name": "approved",
          "type": "bool"
        }
      ],
      "name": "ApprovalForAll",
      "type": "event"
    },
    {
      "anonymous": false,
      "inputs": [
        {
          "indexed": true,
          "internalType": "address",
          "name": "previousOwner",
          "type": "address"
        },
        {
          "indexed": true,
          "internalType": "address",
          "name": "newOwner",
          "type": "address"
        }
      ],
      "name": "OwnershipTransferred",
      "type": "event"
    },
    {
      "anonymous": false,
      "inputs": [
        {
          "indexed": true,
          "internalType": "address",
          "name": "from",
          "type": "address"
        },
        {
          "indexed": true,
          "internalType": "address",
          "name": "to",
          "type": "address"
        },
        {
          "indexed": true,
          "internalType": "uint256",
          "name": "tokenId",
          "type": "uint256"
        }
      ],
      "name": "Transfer",
      "type": "event"
    },
    {
      "anonymous": false,
      "inputs": [
        {
          "indexed": true,
          "internalType": "uint256",
          "name": "tokenId",
          "type": "uint256"
        },
        {
          "indexed": true,
          "internalType": "address",
          "name": "user",
          "type": "address"
        },
        {
          "indexed": false,
          "internalType": "uint256",
          "name": "expires",
          "type": "uint256"
        }
      ],
      "name": "UpdateUser",
      "type": "event"
    },
    {
      "inputs": [],
      "name": "_baseUri",
      "outputs": [
        {
          "internalType": "string",
          "name": "",
          "type": "string"
        }
      ],
      "stateMutability": "view",
      "type": "function"
    },
    {
      "inputs": [],
      "name": "_currentSupply",
      "outputs": [
        {
          "internalType": "uint256",
          "name": "",
          "type": "uint256"
        }
      ],
      "stateMutability": "view",
      "type": "function"
    },
    {
      "inputs": [],
      "name": "_maxSupply",
      "outputs": [
        {
          "internalType": "uint256",
          "name": "",
          "type": "uint256"
        }
      ],
      "stateMutability": "view",
      "type": "function"
    },
    {
      "inputs": [],
      "name": "_price",
      "outputs": [
        {
          "internalType": "uint256",
          "name": "",
          "type": "uint256"
        }
      ],
      "stateMutability": "view",
      "type": "function"
    },
    {
      "inputs": [
        {
          "internalType": "address",
          "name": "to",
          "type": "address"
        },
        {
          "internalType": "uint256",
          "name": "tokenId",
          "type": "uint256"
        }
      ],
      "name": "approve",
      "outputs": [],
      "stateMutability": "nonpayable",
      "type": "function"
    },
    {
      "inputs": [
        {
          "internalType": "address",
          "name": "owner",
          "type": "address"
        }
      ],
      "name": "balanceOf",
      "outputs": [
        {
          "internalType": "uint256",
          "name": "",
          "type": "uint256"
        }
      ],
      "stateMutability": "view",
      "type": "function"
    },
    {
      "inputs": [
        {
          "internalType": "string",
          "name": "newBaseUri",
          "type": "string"
        }
      ],
      "name": "changeBaseUri",
      "outputs": [],
      "stateMutability": "nonpayable",
      "type": "function"
    },
    {
      "inputs": [
        {
          "internalType": "bool",
          "name": "allowTransferBeforeUserExpired_",
          "type": "bool"
        },
        {
          "internalType": "bool",
          "name": "allowChangeUserBeforeUserExpired_",
          "type": "bool"
        }
      ],
      "name": "changeConfiguration",
      "outputs": [],
      "stateMutability": "nonpayable",
      "type": "function"
    },
    {
      "inputs": [
        {
          "internalType": "uint256",
          "name": "maxSupply",
          "type": "uint256"
        }
      ],
      "name": "changeMaxSupply",
      "outputs": [],
      "stateMutability": "nonpayable",
      "type": "function"
    },
    {
      "inputs": [
        {
          "internalType": "uint256",
          "name": "price",
          "type": "uint256"
        }
      ],
      "name": "changePrice",
      "outputs": [],
      "stateMutability": "nonpayable",
      "type": "function"
    },
    {
      "inputs": [
        {
          "internalType": "uint256",
          "name": "tokenId",
          "type": "uint256"
        }
      ],
      "name": "getApproved",
      "outputs": [
        {
          "internalType": "address",
          "name": "",
          "type": "address"
        }
      ],
      "stateMutability": "view",
      "type": "function"
    },
    {
      "inputs": [
        {
          "internalType": "address",
          "name": "owner",
          "type": "address"
        },
        {
          "internalType": "address",
          "name": "operator",
          "type": "address"
        }
      ],
      "name": "isApprovedForAll",
      "outputs": [
        {
          "internalType": "bool",
          "name": "",
          "type": "bool"
        }
      ],
      "stateMutability": "view",
      "type": "function"
    },
    {
      "inputs": [],
      "name": "mint",
      "outputs": [
        {
          "internalType": "uint256",
          "name": "",
          "type": "uint256"
        }
      ],
      "stateMutability": "payable",
      "type": "function"
    },
    {
      "inputs": [],
      "name": "name",
      "outputs": [
        {
          "internalType": "string",
          "name": "",
          "type": "string"
        }
      ],
      "stateMutability": "view",
      "type": "function"
    },
    {
      "inputs": [],
      "name": "owner",
      "outputs": [
        {
          "internalType": "address",
          "name": "",
          "type": "address"
        }
      ],
      "stateMutability": "view",
      "type": "function"
    },
    {
      "inputs": [
        {
          "internalType": "uint256",
          "name": "tokenId",
          "type": "uint256"
        }
      ],
      "name": "ownerOf",
      "outputs": [
        {
          "internalType": "address",
          "name": "",
          "type": "address"
        }
      ],
      "stateMutability": "view",
      "type": "function"
    },
    {
      "inputs": [],
      "name": "renounceOwnership",
      "outputs": [],
      "stateMutability": "nonpayable",
      "type": "function"
    },
    {
      "inputs": [
        {
          "internalType": "address",
          "name": "from",
          "type": "address"
        },
        {
          "internalType": "address",
          "name": "to",
          "type": "address"
        },
        {
          "internalType": "uint256",
          "name": "tokenId",
          "type": "uint256"
        }
      ],
      "name": "safeTransferFrom",
      "outputs": [],
      "stateMutability": "nonpayable",
      "type": "function"
    },
    {
      "inputs": [
        {
          "internalType": "address",
          "name": "from",
          "type": "address"
        },
        {
          "internalType": "address",
          "name": "to",
          "type": "address"
        },
        {
          "internalType": "uint256",
          "name": "tokenId",
          "type": "uint256"
        },
        {
          "internalType": "bytes",
          "name": "_data",
          "type": "bytes"
        }
      ],
      "name": "safeTransferFrom",
      "outputs": [],
      "stateMutability": "nonpayable",
      "type": "function"
    },
    {
      "inputs": [
        {
          "internalType": "address",
          "name": "operator",
          "type": "address"
        },
        {
          "internalType": "bool",
          "name": "approved",
          "type": "bool"
        }
      ],
      "name": "setApprovalForAll",
      "outputs": [],
      "stateMutability": "nonpayable",
      "type": "function"
    },
    {
      "inputs": [
        {
          "internalType": "uint256",
          "name": "tokenId",
          "type": "uint256"
        },
        {
          "internalType": "address",
          "name": "user",
          "type": "address"
        },
        {
          "internalType": "uint256",
          "name": "expires",
          "type": "uint256"
        }
      ],
      "name": "setUser",
      "outputs": [],
      "stateMutability": "nonpayable",
      "type": "function"
    },
    {
      "inputs": [
        {
          "internalType": "bytes4",
          "name": "interfaceId",
          "type": "bytes4"
        }
      ],
      "name": "supportsInterface",
      "outputs": [
        {
          "internalType": "bool",
          "name": "",
          "type": "bool"
        }
      ],
      "stateMutability": "view",
      "type": "function"
    },
    {
      "inputs": [],
      "name": "symbol",
      "outputs": [
        {
          "internalType": "string",
          "name": "",
          "type": "string"
        }
      ],
      "stateMutability": "view",
      "type": "function"
    },
    {
      "inputs": [
        {
          "internalType": "uint256",
          "name": "tokenId",
          "type": "uint256"
        }
      ],
      "name": "tokenURI",
      "outputs": [
        {
          "internalType": "string",
          "name": "",
          "type": "string"
        }
      ],
      "stateMutability": "view",
      "type": "function"
    },
    {
      "inputs": [
        {
          "internalType": "address",
          "name": "from",
          "type": "address"
        },
        {
          "internalType": "address",
          "name": "to",
          "type": "address"
        },
        {
          "internalType": "uint256",
          "name": "tokenId",
          "type": "uint256"
        }
      ],
      "name": "transferFrom",
      "outputs": [],
      "stateMutability": "nonpayable",
      "type": "function"
    },
    {
      "inputs": [
        {
          "internalType": "address",
          "name": "newOwner",
          "type": "address"
        }
      ],
      "name": "transferOwnership",
      "outputs": [],
      "stateMutability": "nonpayable",
      "type": "function"
    },
    {
      "inputs": [
        {
          "internalType": "uint256",
          "name": "tokenId",
          "type": "uint256"
        }
      ],
      "name": "userExpires",
      "outputs": [
        {
          "internalType": "uint256",
          "name": "",
          "type": "uint256"
        }
      ],
      "stateMutability": "view",
      "type": "function"
    },
    {
      "inputs": [
        {
          "internalType": "uint256",
          "name": "tokenId",
          "type": "uint256"
        }
      ],
      "name": "userOf",
      "outputs": [
        {
          "internalType": "address",
          "name": "",
          "type": "address"
        }
      ],
      "stateMutability": "view",
      "type": "function"
    },
    {
      "inputs": [
        {
          "internalType": "address payable",
          "name": "recipient",
          "type": "address"
        }
      ],
      "name": "withdraw",
      "outputs": [],
      "stateMutability": "nonpayable",
      "type": "function"
    }
  ],
  "bytecode": "0x60806040526000600a556000600b553480156200001b57600080fd5b506040516200430a3803806200430a833981810160405281019062000041919062000373565b6040518060400160405280600d81526020017f4c656e6461626c65546f6b656e000000000000000000000000000000000000008152506040518060400160405280600581526020017f4c543732310000000000000000000000000000000000000000000000000000008152506001808383620000d2620000c66200016e60201b60201c565b6200017660201b60201c565b8160019080519060200190620000ea9291906200023a565b508060029080519060200190620001039291906200023a565b50505081600860006101000a81548160ff02191690831515021790555080600860016101000a81548160ff0219169083151502179055505050505081600a8190555080600b8190555082600c9080519060200190620001649291906200023a565b5050505062000576565b600033905090565b60008060009054906101000a900473ffffffffffffffffffffffffffffffffffffffff169050816000806101000a81548173ffffffffffffffffffffffffffffffffffffffff021916908373ffffffffffffffffffffffffffffffffffffffff1602179055508173ffffffffffffffffffffffffffffffffffffffff168173ffffffffffffffffffffffffffffffffffffffff167f8be0079c531659141344cd1fd0a4f28419497f9722a3daafe3b4186f6b6457e060405160405180910390a35050565b828054620002489062000481565b90600052602060002090601f0160209004810192826200026c5760008555620002b8565b82601f106200028757805160ff1916838001178555620002b8565b82800160010185558215620002b8579182015b82811115620002b75782518255916020019190600101906200029a565b5b509050620002c79190620002cb565b5090565b5b80821115620002e6576000816000905550600101620002cc565b5090565b600062000301620002fb846200040b565b620003e2565b9050828152602081018484840111156200031a57600080fd5b620003278482856200044b565b509392505050565b600082601f8301126200034157600080fd5b815162000353848260208601620002ea565b91505092915050565b6000815190506200036d816200055c565b92915050565b6000806000606084860312156200038957600080fd5b600084015167ffffffffffffffff811115620003a457600080fd5b620003b2868287016200032f565b9350506020620003c5868287016200035c565b9250506040620003d8868287016200035c565b9150509250925092565b6000620003ee62000401565b9050620003fc8282620004b7565b919050565b6000604051905090565b600067ffffffffffffffff8211156200042957620004286200051c565b5b62000434826200054b565b9050602081019050919050565b6000819050919050565b60005b838110156200046b5780820151818401526020810190506200044e565b838111156200047b576000848401525b50505050565b600060028204905060018216806200049a57607f821691505b60208210811415620004b157620004b0620004ed565b5b50919050565b620004c2826200054b565b810181811067ffffffffffffffff82111715620004e457620004e36200051c565b5b80604052505050565b7f4e487b7100000000000000000000000000000000000000000000000000000000600052602260045260246000fd5b7f4e487b7100000000000000000000000000000000000000000000000000000000600052604160045260246000fd5b6000601f19601f8301169050919050565b620005678162000441565b81146200057357600080fd5b50565b613d8480620005866000396000f3fe6080604052600436106101c25760003560e01c806351cff8d9116100f7578063a22cb46511610095578063c2f1f14a11610064578063c2f1f14a1461061d578063c87b56dd1461065a578063e985e9c514610697578063f2fde38b146106d4576101c2565b8063a22cb46514610577578063a2b40d19146105a0578063a4fefad6146105c9578063b88d4fde146105f4576101c2565b8063715018a6116100d1578063715018a6146104cd5780638da5cb5b146104e45780638fc88c481461050f57806395d89b411461054c576101c2565b806351cff8d91461042a5780636352211e1461045357806370a0823114610490576101c2565b806322f4596f116101645780633e63eb2a1161013e5780633e63eb2a14610384578063404c7cdd146103af57806342842e0e146103d8578063492d306b14610401576101c2565b806322f4596f14610305578063235b6ea11461033057806323b872dd1461035b576101c2565b8063095ea7b3116101a0578063095ea7b31461026c5780630a85edf8146102955780631249c58b146102be5780631b8a910d146102dc576101c2565b806301ffc9a7146101c757806306fdde0314610204578063081812fc1461022f575b600080fd5b3480156101d357600080fd5b506101ee60048036038101906101e99190612bb2565b6106fd565b6040516101fb91906130e3565b60405180910390f35b34801561021057600080fd5b50610219610777565b6040516102269190613119565b60405180910390f35b34801561023b57600080fd5b5061025660048036038101906102519190612c45565b610809565b604051610263919061307c565b60405180910390f35b34801561027857600080fd5b50610293600480360381019061028e9190612b3a565b61088e565b005b3480156102a157600080fd5b506102bc60048036038101906102b79190612b76565b6109a6565b005b6102c6610a5a565b6040516102d391906133bb565b60405180910390f35b3480156102e857600080fd5b5061030360048036038101906102fe9190612c6e565b610b16565b005b34801561031157600080fd5b5061031a610d25565b60405161032791906133bb565b60405180910390f35b34801561033c57600080fd5b50610345610d2b565b60405161035291906133bb565b60405180910390f35b34801561036757600080fd5b50610382600480360381019061037d9190612a34565b610d31565b005b34801561039057600080fd5b50610399610d91565b6040516103a69190613119565b60405180910390f35b3480156103bb57600080fd5b506103d660048036038101906103d19190612c45565b610e1f565b005b3480156103e457600080fd5b506103ff60048036038101906103fa9190612a34565b610ea5565b005b34801561040d57600080fd5b5061042860048036038101906104239190612c04565b610ec5565b005b34801561043657600080fd5b50610451600480360381019061044c91906129cf565b610f5b565b005b34801561045f57600080fd5b5061047a60048036038101906104759190612c45565b611027565b604051610487919061307c565b60405180910390f35b34801561049c57600080fd5b506104b760048036038101906104b2919061297d565b6110d9565b6040516104c491906133bb565b60405180910390f35b3480156104d957600080fd5b506104e2611191565b005b3480156104f057600080fd5b506104f9611219565b604051610506919061307c565b60405180910390f35b34801561051b57600080fd5b5061053660048036038101906105319190612c45565b611242565b60405161054391906133bb565b60405180910390f35b34801561055857600080fd5b50610561611262565b60405161056e9190613119565b60405180910390f35b34801561058357600080fd5b5061059e60048036038101906105999190612afe565b6112f4565b005b3480156105ac57600080fd5b506105c760048036038101906105c29190612c45565b61130a565b005b3480156105d557600080fd5b506105de611390565b6040516105eb91906133bb565b60405180910390f35b34801561060057600080fd5b5061061b60048036038101906106169190612a83565b6113a1565b005b34801561062957600080fd5b50610644600480360381019061063f9190612c45565b611403565b604051610651919061307c565b60405180910390f35b34801561066657600080fd5b50610681600480360381019061067c9190612c45565b61146a565b60405161068e9190613119565b60405180910390f35b3480156106a357600080fd5b506106be60048036038101906106b991906129f8565b611511565b6040516106cb91906130e3565b60405180910390f35b3480156106e057600080fd5b506106fb60048036038101906106f6919061297d565b6115a5565b005b60007f56b3ec0f000000000000000000000000000000000000000000000000000000007bffffffffffffffffffffffffffffffffffffffffffffffffffffffff1916827bffffffffffffffffffffffffffffffffffffffffffffffffffffffff19161480610770575061076f8261169d565b5b9050919050565b60606001805461078690613635565b80601f01602080910402602001604051908101604052809291908181526020018280546107b290613635565b80156107ff5780601f106107d4576101008083540402835291602001916107ff565b820191906000526020600020905b8154815290600101906020018083116107e257829003601f168201915b5050505050905090565b60006108148261177f565b610853576040517f08c379a000000000000000000000000000000000000000000000000000000000815260040161084a906132fb565b60405180910390fd5b6005600083815260200190815260200160002060009054906101000a900473ffffffffffffffffffffffffffffffffffffffff169050919050565b600061089982611027565b90508073ffffffffffffffffffffffffffffffffffffffff168373ffffffffffffffffffffffffffffffffffffffff16141561090a576040517f08c379a00000000000000000000000000000000000000000000000000000000081526004016109019061335b565b60405180910390fd5b8073ffffffffffffffffffffffffffffffffffffffff166109296117eb565b73ffffffffffffffffffffffffffffffffffffffff1614806109585750610957816109526117eb565b611511565b5b610997576040517f08c379a000000000000000000000000000000000000000000000000000000000815260040161098e9061325b565b60405180910390fd5b6109a183836117f3565b505050565b6109ae6117eb565b73ffffffffffffffffffffffffffffffffffffffff166109cc611219565b73ffffffffffffffffffffffffffffffffffffffff1614610a22576040517f08c379a0000000000000000000000000000000000000000000000000000000008152600401610a199061331b565b60405180910390fd5b81600860006101000a81548160ff02191690831515021790555080600860016101000a81548160ff0219169083151502179055505050565b6000600b54610a6960096118ac565b10610aa9576040517f08c379a0000000000000000000000000000000000000000000000000000000008152600401610aa0906132bb565b60405180910390fd5b600a543414610aed576040517f08c379a0000000000000000000000000000000000000000000000000000000008152600401610ae49061339b565b60405180910390fd5b610af760096118ba565b6000610b0360096118ac565b9050610b0f33826118d0565b8091505090565b610b2033846118ee565b610b5f576040517f08c379a0000000000000000000000000000000000000000000000000000000008152600401610b569061313b565b60405180910390fd5b600860019054906101000a900460ff1680610c2e5750600073ffffffffffffffffffffffffffffffffffffffff163073ffffffffffffffffffffffffffffffffffffffff1663c2f1f14a856040518263ffffffff1660e01b8152600401610bc691906133bb565b60206040518083038186803b158015610bde57600080fd5b505afa158015610bf2573d6000803e3d6000fd5b505050506040513d601f19601f82011682018060405250810190610c1691906129a6565b73ffffffffffffffffffffffffffffffffffffffff16145b610c6d576040517f08c379a0000000000000000000000000000000000000000000000000000000008152600401610c64906131db565b60405180910390fd5b6000600760008581526020019081526020016000209050828160000160006101000a81548173ffffffffffffffffffffffffffffffffffffffff021916908373ffffffffffffffffffffffffffffffffffffffff1602179055508181600101819055508273ffffffffffffffffffffffffffffffffffffffff16847fd0d4d2465fbaaa658444f22a71af0576dc66d910f58504ac3091a8f2e7e0462d84604051610d1791906133bb565b60405180910390a350505050565b600b5481565b600a5481565b610d42610d3c6117eb565b826118ee565b610d81576040517f08c379a0000000000000000000000000000000000000000000000000000000008152600401610d789061337b565b60405180910390fd5b610d8c8383836119cc565b505050565b600c8054610d9e90613635565b80601f0160208091040260200160405190810160405280929190818152602001828054610dca90613635565b8015610e175780601f10610dec57610100808354040283529160200191610e17565b820191906000526020600020905b815481529060010190602001808311610dfa57829003601f168201915b505050505081565b610e276117eb565b73ffffffffffffffffffffffffffffffffffffffff16610e45611219565b73ffffffffffffffffffffffffffffffffffffffff1614610e9b576040517f08c379a0000000000000000000000000000000000000000000000000000000008152600401610e929061331b565b60405180910390fd5b80600b8190555050565b610ec0838383604051806020016040528060008152506113a1565b505050565b610ecd6117eb565b73ffffffffffffffffffffffffffffffffffffffff16610eeb611219565b73ffffffffffffffffffffffffffffffffffffffff1614610f41576040517f08c379a0000000000000000000000000000000000000000000000000000000008152600401610f389061331b565b60405180910390fd5b80600c9080519060200190610f57929190612777565b5050565b610f636117eb565b73ffffffffffffffffffffffffffffffffffffffff16610f81611219565b73ffffffffffffffffffffffffffffffffffffffff1614610fd7576040517f08c379a0000000000000000000000000000000000000000000000000000000008152600401610fce9061331b565b60405180910390fd5b60004790508173ffffffffffffffffffffffffffffffffffffffff166108fc829081150290604051600060405180830381858888f19350505050158015611022573d6000803e3d6000fd5b505050565b6000806003600084815260200190815260200160002060009054906101000a900473ffffffffffffffffffffffffffffffffffffffff169050600073ffffffffffffffffffffffffffffffffffffffff168173ffffffffffffffffffffffffffffffffffffffff1614156110d0576040517f08c379a00000000000000000000000000000000000000000000000000000000081526004016110c79061329b565b60405180910390fd5b80915050919050565b60008073ffffffffffffffffffffffffffffffffffffffff168273ffffffffffffffffffffffffffffffffffffffff16141561114a576040517f08c379a00000000000000000000000000000000000000000000000000000000081526004016111419061327b565b60405180910390fd5b600460008373ffffffffffffffffffffffffffffffffffffffff1673ffffffffffffffffffffffffffffffffffffffff168152602001908152602001600020549050919050565b6111996117eb565b73ffffffffffffffffffffffffffffffffffffffff166111b7611219565b73ffffffffffffffffffffffffffffffffffffffff161461120d576040517f08c379a00000000000000000000000000000000000000000000000000000000081526004016112049061331b565b60405180910390fd5b6112176000611c33565b565b60008060009054906101000a900473ffffffffffffffffffffffffffffffffffffffff16905090565b600060076000838152602001908152602001600020600101549050919050565b60606002805461127190613635565b80601f016020809104026020016040519081016040528092919081815260200182805461129d90613635565b80156112ea5780601f106112bf576101008083540402835291602001916112ea565b820191906000526020600020905b8154815290600101906020018083116112cd57829003601f168201915b5050505050905090565b6113066112ff6117eb565b8383611cf7565b5050565b6113126117eb565b73ffffffffffffffffffffffffffffffffffffffff16611330611219565b73ffffffffffffffffffffffffffffffffffffffff1614611386576040517f08c379a000000000000000000000000000000000000000000000000000000000815260040161137d9061331b565b60405180910390fd5b80600a8190555050565b600061139c60096118ac565b905090565b6113b26113ac6117eb565b836118ee565b6113f1576040517f08c379a00000000000000000000000000000000000000000000000000000000081526004016113e89061337b565b60405180910390fd5b6113fd84848484611e64565b50505050565b600042600760008481526020019081526020016000206001015410611460576007600083815260200190815260200160002060000160009054906101000a900473ffffffffffffffffffffffffffffffffffffffff169050611465565b600090505b919050565b60606114758261177f565b6114b4576040517f08c379a00000000000000000000000000000000000000000000000000000000081526004016114ab9061333b565b60405180910390fd5b60006114be611ec0565b905060008151116114de5760405180602001604052806000815250611509565b806114e884611f52565b6040516020016114f9929190613058565b6040516020818303038152906040525b915050919050565b6000600660008473ffffffffffffffffffffffffffffffffffffffff1673ffffffffffffffffffffffffffffffffffffffff16815260200190815260200160002060008373ffffffffffffffffffffffffffffffffffffffff1673ffffffffffffffffffffffffffffffffffffffff16815260200190815260200160002060009054906101000a900460ff16905092915050565b6115ad6117eb565b73ffffffffffffffffffffffffffffffffffffffff166115cb611219565b73ffffffffffffffffffffffffffffffffffffffff1614611621576040517f08c379a00000000000000000000000000000000000000000000000000000000081526004016116189061331b565b60405180910390fd5b600073ffffffffffffffffffffffffffffffffffffffff168173ffffffffffffffffffffffffffffffffffffffff161415611691576040517f08c379a00000000000000000000000000000000000000000000000000000000081526004016116889061317b565b60405180910390fd5b61169a81611c33565b50565b60007f80ac58cd000000000000000000000000000000000000000000000000000000007bffffffffffffffffffffffffffffffffffffffffffffffffffffffff1916827bffffffffffffffffffffffffffffffffffffffffffffffffffffffff1916148061176857507f5b5e139f000000000000000000000000000000000000000000000000000000007bffffffffffffffffffffffffffffffffffffffffffffffffffffffff1916827bffffffffffffffffffffffffffffffffffffffffffffffffffffffff1916145b806117785750611777826120ff565b5b9050919050565b60008073ffffffffffffffffffffffffffffffffffffffff166003600084815260200190815260200160002060009054906101000a900473ffffffffffffffffffffffffffffffffffffffff1673ffffffffffffffffffffffffffffffffffffffff1614159050919050565b600033905090565b816005600083815260200190815260200160002060006101000a81548173ffffffffffffffffffffffffffffffffffffffff021916908373ffffffffffffffffffffffffffffffffffffffff160217905550808273ffffffffffffffffffffffffffffffffffffffff1661186683611027565b73ffffffffffffffffffffffffffffffffffffffff167f8c5be1e5ebec7d5bd14f71427d1e84f3dd0314c0f7b2291e5b200ac8c7c3b92560405160405180910390a45050565b600081600001549050919050565b6001816000016000828254019250508190555050565b6118ea828260405180602001604052806000815250612169565b5050565b60006118f98261177f565b611938576040517f08c379a000000000000000000000000000000000000000000000000000000000815260040161192f9061323b565b60405180910390fd5b600061194383611027565b90508073ffffffffffffffffffffffffffffffffffffffff168473ffffffffffffffffffffffffffffffffffffffff16148061198557506119848185611511565b5b806119c357508373ffffffffffffffffffffffffffffffffffffffff166119ab84610809565b73ffffffffffffffffffffffffffffffffffffffff16145b91505092915050565b8273ffffffffffffffffffffffffffffffffffffffff166119ec82611027565b73ffffffffffffffffffffffffffffffffffffffff1614611a42576040517f08c379a0000000000000000000000000000000000000000000000000000000008152600401611a399061319b565b60405180910390fd5b600073ffffffffffffffffffffffffffffffffffffffff168273ffffffffffffffffffffffffffffffffffffffff161415611ab2576040517f08c379a0000000000000000000000000000000000000000000000000000000008152600401611aa9906131fb565b60405180910390fd5b611abd8383836121c4565b611ac86000826117f3565b6001600460008573ffffffffffffffffffffffffffffffffffffffff1673ffffffffffffffffffffffffffffffffffffffff1681526020019081526020016000206000828254611b189190613527565b925050819055506001600460008473ffffffffffffffffffffffffffffffffffffffff1673ffffffffffffffffffffffffffffffffffffffff1681526020019081526020016000206000828254611b6f91906134a0565b92505081905550816003600083815260200190815260200160002060006101000a81548173ffffffffffffffffffffffffffffffffffffffff021916908373ffffffffffffffffffffffffffffffffffffffff160217905550808273ffffffffffffffffffffffffffffffffffffffff168473ffffffffffffffffffffffffffffffffffffffff167fddf252ad1be2c89b69c2b068fc378daa952ba7f163c4a11628f55a4df523b3ef60405160405180910390a4611c2e8383836123d9565b505050565b60008060009054906101000a900473ffffffffffffffffffffffffffffffffffffffff169050816000806101000a81548173ffffffffffffffffffffffffffffffffffffffff021916908373ffffffffffffffffffffffffffffffffffffffff1602179055508173ffffffffffffffffffffffffffffffffffffffff168173ffffffffffffffffffffffffffffffffffffffff167f8be0079c531659141344cd1fd0a4f28419497f9722a3daafe3b4186f6b6457e060405160405180910390a35050565b8173ffffffffffffffffffffffffffffffffffffffff168373ffffffffffffffffffffffffffffffffffffffff161415611d66576040517f08c379a0000000000000000000000000000000000000000000000000000000008152600401611d5d9061321b565b60405180910390fd5b80600660008573ffffffffffffffffffffffffffffffffffffffff1673ffffffffffffffffffffffffffffffffffffffff16815260200190815260200160002060008473ffffffffffffffffffffffffffffffffffffffff1673ffffffffffffffffffffffffffffffffffffffff16815260200190815260200160002060006101000a81548160ff0219169083151502179055508173ffffffffffffffffffffffffffffffffffffffff168373ffffffffffffffffffffffffffffffffffffffff167f17307eab39ab6107e8899845ad3d59bd9653f200f220920489ca2b5937696c3183604051611e5791906130e3565b60405180910390a3505050565b611e6f8484846119cc565b611e7b848484846123de565b611eba576040517f08c379a0000000000000000000000000000000000000000000000000000000008152600401611eb19061315b565b60405180910390fd5b50505050565b6060600c8054611ecf90613635565b80601f0160208091040260200160405190810160405280929190818152602001828054611efb90613635565b8015611f485780601f10611f1d57610100808354040283529160200191611f48565b820191906000526020600020905b815481529060010190602001808311611f2b57829003601f168201915b5050505050905090565b60606000821415611f9a576040518060400160405280600181526020017f300000000000000000000000000000000000000000000000000000000000000081525090506120fa565b600082905060005b60008214611fcc578080611fb590613698565b915050600a82611fc591906134f6565b9150611fa2565b60008167ffffffffffffffff81111561200e577f4e487b7100000000000000000000000000000000000000000000000000000000600052604160045260246000fd5b6040519080825280601f01601f1916602001820160405280156120405781602001600182028036833780820191505090505b5090505b600085146120f3576001826120599190613527565b9150600a8561206891906136e1565b603061207491906134a0565b60f81b8183815181106120b0577f4e487b7100000000000000000000000000000000000000000000000000000000600052603260045260246000fd5b60200101907effffffffffffffffffffffffffffffffffffffffffffffffffffffffffffff1916908160001a905350600a856120ec91906134f6565b9450612044565b8093505050505b919050565b60007f01ffc9a7000000000000000000000000000000000000000000000000000000007bffffffffffffffffffffffffffffffffffffffffffffffffffffffff1916827bffffffffffffffffffffffffffffffffffffffffffffffffffffffff1916149050919050565b6121738383612575565b61218060008484846123de565b6121bf576040517f08c379a00000000000000000000000000000000000000000000000000000000081526004016121b69061315b565b60405180910390fd5b505050565b600860009054906101000a900460ff16806122935750600073ffffffffffffffffffffffffffffffffffffffff163073ffffffffffffffffffffffffffffffffffffffff1663c2f1f14a836040518263ffffffff1660e01b815260040161222b91906133bb565b60206040518083038186803b15801561224357600080fd5b505afa158015612257573d6000803e3d6000fd5b505050506040513d601f19601f8201168201806040525081019061227b91906129a6565b73ffffffffffffffffffffffffffffffffffffffff16145b6122d2576040517f08c379a00000000000000000000000000000000000000000000000000000000081526004016122c9906131db565b60405180910390fd5b6122dd83838361274f565b8173ffffffffffffffffffffffffffffffffffffffff168373ffffffffffffffffffffffffffffffffffffffff16146123d45760006007600083815260200190815260200160002060000160006101000a81548173ffffffffffffffffffffffffffffffffffffffff021916908373ffffffffffffffffffffffffffffffffffffffff16021790555060006007600083815260200190815260200160002060010181905550600073ffffffffffffffffffffffffffffffffffffffff16817fd0d4d2465fbaaa658444f22a71af0576dc66d910f58504ac3091a8f2e7e0462d60006040516123cb91906130fe565b60405180910390a35b505050565b505050565b60006123ff8473ffffffffffffffffffffffffffffffffffffffff16612754565b15612568578373ffffffffffffffffffffffffffffffffffffffff1663150b7a026124286117eb565b8786866040518563ffffffff1660e01b815260040161244a9493929190613097565b602060405180830381600087803b15801561246457600080fd5b505af192505050801561249557506040513d601f19601f820116820180604052508101906124929190612bdb565b60015b612518573d80600081146124c5576040519150601f19603f3d011682016040523d82523d6000602084013e6124ca565b606091505b50600081511415612510576040517f08c379a00000000000000000000000000000000000000000000000000000000081526004016125079061315b565b60405180910390fd5b805181602001fd5b63150b7a0260e01b7bffffffffffffffffffffffffffffffffffffffffffffffffffffffff1916817bffffffffffffffffffffffffffffffffffffffffffffffffffffffff19161491505061256d565b600190505b949350505050565b600073ffffffffffffffffffffffffffffffffffffffff168273ffffffffffffffffffffffffffffffffffffffff1614156125e5576040517f08c379a00000000000000000000000000000000000000000000000000000000081526004016125dc906132db565b60405180910390fd5b6125ee8161177f565b1561262e576040517f08c379a0000000000000000000000000000000000000000000000000000000008152600401612625906131bb565b60405180910390fd5b61263a600083836121c4565b6001600460008473ffffffffffffffffffffffffffffffffffffffff1673ffffffffffffffffffffffffffffffffffffffff168152602001908152602001600020600082825461268a91906134a0565b92505081905550816003600083815260200190815260200160002060006101000a81548173ffffffffffffffffffffffffffffffffffffffff021916908373ffffffffffffffffffffffffffffffffffffffff160217905550808273ffffffffffffffffffffffffffffffffffffffff16600073ffffffffffffffffffffffffffffffffffffffff167fddf252ad1be2c89b69c2b068fc378daa952ba7f163c4a11628f55a4df523b3ef60405160405180910390a461274b600083836123d9565b5050565b505050565b6000808273ffffffffffffffffffffffffffffffffffffffff163b119050919050565b82805461278390613635565b90600052602060002090601f0160209004810192826127a557600085556127ec565b82601f106127be57805160ff19168380011785556127ec565b828001600101855582156127ec579182015b828111156127eb5782518255916020019190600101906127d0565b5b5090506127f991906127fd565b5090565b5b808211156128165760008160009055506001016127fe565b5090565b600061282d612828846133fb565b6133d6565b90508281526020810184848401111561284557600080fd5b6128508482856135f3565b509392505050565b600061286b6128668461342c565b6133d6565b90508281526020810184848401111561288357600080fd5b61288e8482856135f3565b509392505050565b6000813590506128a581613cdb565b92915050565b6000815190506128ba81613cdb565b92915050565b6000813590506128cf81613cf2565b92915050565b6000813590506128e481613d09565b92915050565b6000813590506128f981613d20565b92915050565b60008151905061290e81613d20565b92915050565b600082601f83011261292557600080fd5b813561293584826020860161281a565b91505092915050565b600082601f83011261294f57600080fd5b813561295f848260208601612858565b91505092915050565b60008135905061297781613d37565b92915050565b60006020828403121561298f57600080fd5b600061299d84828501612896565b91505092915050565b6000602082840312156129b857600080fd5b60006129c6848285016128ab565b91505092915050565b6000602082840312156129e157600080fd5b60006129ef848285016128c0565b91505092915050565b60008060408385031215612a0b57600080fd5b6000612a1985828601612896565b9250506020612a2a85828601612896565b9150509250929050565b600080600060608486031215612a4957600080fd5b6000612a5786828701612896565b9350506020612a6886828701612896565b9250506040612a7986828701612968565b9150509250925092565b60008060008060808587031215612a9957600080fd5b6000612aa787828801612896565b9450506020612ab887828801612896565b9350506040612ac987828801612968565b925050606085013567ffffffffffffffff811115612ae657600080fd5b612af287828801612914565b91505092959194509250565b60008060408385031215612b1157600080fd5b6000612b1f85828601612896565b9250506020612b30858286016128d5565b9150509250929050565b60008060408385031215612b4d57600080fd5b6000612b5b85828601612896565b9250506020612b6c85828601612968565b9150509250929050565b60008060408385031215612b8957600080fd5b6000612b97858286016128d5565b9250506020612ba8858286016128d5565b9150509250929050565b600060208284031215612bc457600080fd5b6000612bd2848285016128ea565b91505092915050565b600060208284031215612bed57600080fd5b6000612bfb848285016128ff565b91505092915050565b600060208284031215612c1657600080fd5b600082013567ffffffffffffffff811115612c3057600080fd5b612c3c8482850161293e565b91505092915050565b600060208284031215612c5757600080fd5b6000612c6584828501612968565b91505092915050565b600080600060608486031215612c8357600080fd5b6000612c9186828701612968565b9350506020612ca286828701612896565b9250506040612cb386828701612968565b9150509250925092565b612cc68161355b565b82525050565b612cd58161357f565b82525050565b6000612ce68261345d565b612cf08185613473565b9350612d00818560208601613602565b612d09816137ce565b840191505092915050565b612d1d816135e1565b82525050565b6000612d2e82613468565b612d388185613484565b9350612d48818560208601613602565b612d51816137ce565b840191505092915050565b6000612d6782613468565b612d718185613495565b9350612d81818560208601613602565b80840191505092915050565b6000612d9a601683613484565b9150612da5826137df565b602082019050919050565b6000612dbd603283613484565b9150612dc882613808565b604082019050919050565b6000612de0602683613484565b9150612deb82613857565b604082019050919050565b6000612e03602583613484565b9150612e0e826138a6565b604082019050919050565b6000612e26601c83613484565b9150612e31826138f5565b602082019050919050565b6000612e49601383613484565b9150612e548261391e565b602082019050919050565b6000612e6c602483613484565b9150612e7782613947565b604082019050919050565b6000612e8f601983613484565b9150612e9a82613996565b602082019050919050565b6000612eb2602c83613484565b9150612ebd826139bf565b604082019050919050565b6000612ed5603883613484565b9150612ee082613a0e565b604082019050919050565b6000612ef8602a83613484565b9150612f0382613a5d565b604082019050919050565b6000612f1b602983613484565b9150612f2682613aac565b604082019050919050565b6000612f3e601283613484565b9150612f4982613afb565b602082019050919050565b6000612f61602083613484565b9150612f6c82613b24565b602082019050919050565b6000612f84602c83613484565b9150612f8f82613b4d565b604082019050919050565b6000612fa7602083613484565b9150612fb282613b9c565b602082019050919050565b6000612fca602f83613484565b9150612fd582613bc5565b604082019050919050565b6000612fed602183613484565b9150612ff882613c14565b604082019050919050565b6000613010603183613484565b915061301b82613c63565b604082019050919050565b6000613033600f83613484565b915061303e82613cb2565b602082019050919050565b613052816135d7565b82525050565b60006130648285612d5c565b91506130708284612d5c565b91508190509392505050565b60006020820190506130916000830184612cbd565b92915050565b60006080820190506130ac6000830187612cbd565b6130b96020830186612cbd565b6130c66040830185613049565b81810360608301526130d88184612cdb565b905095945050505050565b60006020820190506130f86000830184612ccc565b92915050565b60006020820190506131136000830184612d14565b92915050565b600060208201905081810360008301526131338184612d23565b905092915050565b6000602082019050818103600083015261315481612d8d565b9050919050565b6000602082019050818103600083015261317481612db0565b9050919050565b6000602082019050818103600083015261319481612dd3565b9050919050565b600060208201905081810360008301526131b481612df6565b9050919050565b600060208201905081810360008301526131d481612e19565b9050919050565b600060208201905081810360008301526131f481612e3c565b9050919050565b6000602082019050818103600083015261321481612e5f565b9050919050565b6000602082019050818103600083015261323481612e82565b9050919050565b6000602082019050818103600083015261325481612ea5565b9050919050565b6000602082019050818103600083015261327481612ec8565b9050919050565b6000602082019050818103600083015261329481612eeb565b9050919050565b600060208201905081810360008301526132b481612f0e565b9050919050565b600060208201905081810360008301526132d481612f31565b9050919050565b600060208201905081810360008301526132f481612f54565b9050919050565b6000602082019050818103600083015261331481612f77565b9050919050565b6000602082019050818103600083015261333481612f9a565b9050919050565b6000602082019050818103600083015261335481612fbd565b9050919050565b6000602082019050818103600083015261337481612fe0565b9050919050565b6000602082019050818103600083015261339481613003565b9050919050565b600060208201905081810360008301526133b481613026565b9050919050565b60006020820190506133d06000830184613049565b92915050565b60006133e06133f1565b90506133ec8282613667565b919050565b6000604051905090565b600067ffffffffffffffff8211156134165761341561379f565b5b61341f826137ce565b9050602081019050919050565b600067ffffffffffffffff8211156134475761344661379f565b5b613450826137ce565b9050602081019050919050565b600081519050919050565b600081519050919050565b600082825260208201905092915050565b600082825260208201905092915050565b600081905092915050565b60006134ab826135d7565b91506134b6836135d7565b9250827fffffffffffffffffffffffffffffffffffffffffffffffffffffffffffffffff038211156134eb576134ea613712565b5b828201905092915050565b6000613501826135d7565b915061350c836135d7565b92508261351c5761351b613741565b5b828204905092915050565b6000613532826135d7565b915061353d836135d7565b9250828210156135505761354f613712565b5b828203905092915050565b6000613566826135b7565b9050919050565b6000613578826135b7565b9050919050565b60008115159050919050565b60007fffffffff0000000000000000000000000000000000000000000000000000000082169050919050565b600073ffffffffffffffffffffffffffffffffffffffff82169050919050565b6000819050919050565b60006135ec826135d7565b9050919050565b82818337600083830152505050565b60005b83811015613620578082015181840152602081019050613605565b8381111561362f576000848401525b50505050565b6000600282049050600182168061364d57607f821691505b6020821081141561366157613660613770565b5b50919050565b613670826137ce565b810181811067ffffffffffffffff8211171561368f5761368e61379f565b5b80604052505050565b60006136a3826135d7565b91507fffffffffffffffffffffffffffffffffffffffffffffffffffffffffffffffff8214156136d6576136d5613712565b5b600182019050919050565b60006136ec826135d7565b91506136f7836135d7565b92508261370757613706613741565b5b828206905092915050565b7f4e487b7100000000000000000000000000000000000000000000000000000000600052601160045260246000fd5b7f4e487b7100000000000000000000000000000000000000000000000000000000600052601260045260246000fd5b7f4e487b7100000000000000000000000000000000000000000000000000000000600052602260045260246000fd5b7f4e487b7100000000000000000000000000000000000000000000000000000000600052604160045260246000fd5b6000601f19601f8301169050919050565b7f6e6f74206f776e6572206e6f7220617070726f76656400000000000000000000600082015250565b7f4552433732313a207472616e7366657220746f206e6f6e20455243373231526560008201527f63656976657220696d706c656d656e7465720000000000000000000000000000602082015250565b7f4f776e61626c653a206e6577206f776e657220697320746865207a65726f206160008201527f6464726573730000000000000000000000000000000000000000000000000000602082015250565b7f4552433732313a207472616e736665722066726f6d20696e636f72726563742060008201527f6f776e6572000000000000000000000000000000000000000000000000000000602082015250565b7f4552433732313a20746f6b656e20616c7265616479206d696e74656400000000600082015250565b7f746f6b656e206e6f7420617661696c61626c6500000000000000000000000000600082015250565b7f4552433732313a207472616e7366657220746f20746865207a65726f2061646460008201527f7265737300000000000000000000000000000000000000000000000000000000602082015250565b7f4552433732313a20617070726f766520746f2063616c6c657200000000000000600082015250565b7f4552433732313a206f70657261746f7220717565727920666f72206e6f6e657860008201527f697374656e7420746f6b656e0000000000000000000000000000000000000000602082015250565b7f4552433732313a20617070726f76652063616c6c6572206973206e6f74206f7760008201527f6e6572206e6f7220617070726f76656420666f7220616c6c0000000000000000602082015250565b7f4552433732313a2062616c616e636520717565727920666f7220746865207a6560008201527f726f206164647265737300000000000000000000000000000000000000000000602082015250565b7f4552433732313a206f776e657220717565727920666f72206e6f6e657869737460008201527f656e7420746f6b656e0000000000000000000000000000000000000000000000602082015250565b7f72656163686564206d617820737570706c790000000000000000000000000000600082015250565b7f4552433732313a206d696e7420746f20746865207a65726f2061646472657373600082015250565b7f4552433732313a20617070726f76656420717565727920666f72206e6f6e657860008201527f697374656e7420746f6b656e0000000000000000000000000000000000000000602082015250565b7f4f776e61626c653a2063616c6c6572206973206e6f7420746865206f776e6572600082015250565b7f4552433732314d657461646174613a2055524920717565727920666f72206e6f60008201527f6e6578697374656e7420746f6b656e0000000000000000000000000000000000602082015250565b7f4552433732313a20617070726f76616c20746f2063757272656e74206f776e6560008201527f7200000000000000000000000000000000000000000000000000000000000000602082015250565b7f4552433732313a207472616e736665722063616c6c6572206973206e6f74206f60008201527f776e6572206e6f7220617070726f766564000000000000000000000000000000602082015250565b7f696e636f72726563742070726963650000000000000000000000000000000000600082015250565b613ce48161355b565b8114613cef57600080fd5b50565b613cfb8161356d565b8114613d0657600080fd5b50565b613d128161357f565b8114613d1d57600080fd5b50565b613d298161358b565b8114613d3457600080fd5b50565b613d40816135d7565b8114613d4b57600080fd5b5056fea264697066735822122034667545177903e5c902e4c9db2e268ddb0aca616b5913b282d572d92fdedb4164736f6c63430008040033",
  "linkReferences": {},
  "deployedLinkReferences": {}
}